:020000040800F2
:10000000A00800206D020008C91900084115000869
:10001000C5190008050A0008534800080000000040
:10002000000000000000000000000000FD200008AB
:10003000110A000800000000591A000851250008A4
:10004000870200088702000887020008870200086C
:10005000870200088702000887020008870200085C
:10006000610B00088D0B0008B90B0008870200081F
:10007000870200088702000887020008870200083C
:10008000870200088702000887020008870200082C
:10009000870200088702000887020008E50B0008B5
:1000A000870200088702000887020008870200080C
:1000B0008702000887020008152C00088702000844
:1000C00087020008870200088702000887020008EC
:1000D000870200082D4500088702000887020008F3
:1000E0004D0A0008870200088702000887020008FE
:1000F00087020008870200088702000887020008BC
:1001000087020008870200083D31000887020008C6
:100110007D3D0008A53D0008870200088D340008D9
:10012000870200088702000887020008870200088B
:10013000870200088702000887020008870200087B
:10014000870200088702000887020008870200086B
:10015000870200088702000887020008870200085B
:10016000870200088702000887020008870200084B
:10017000870200088702000887020008870200083B
:10018000870200088702000887020008D13D0008A6
:10019000870200088702000887020008870200081B
:1001A00000000000000000008702000800F002F8D4
:1001B00000F04CF80AA090E8000C82448344AAF1B5
:1001C0000107DA4501D100F041F8AFF2090EBAE8B3
:1001D0000F0013F0010F18BFFB1A43F0010318477B
:1001E0002C5500004C5500000A4410F8014B14F047
:1001F0000F0508BF10F8015B240908BF10F8014B78
:100200006D1E05D010F8013B6D1E01F8013BF9D1C0
:10021000641E03D0641E01F8015BFBD19142E4D35C
:10022000704700000023002400250026103A28BF54
:1002300078C1FBD8520728BF30C148BF0B60704758
:100240001FB505F058FA1FBD10B510BD00F0CEF86F
:100250001146FFF7F5FF04F0A3FB00F0ECF803B440
:10026000FFF7F2FF03BC04F012FB000009488047CF
:1002700009480047FEE7FEE7FEE7FEE7FEE7FEE788
:10028000FEE7FEE7FEE7FEE704480549054A064BA0
:100290007047000055250008AD010008A0020020AD
:1002A000A0080020A0040020A0040020704710B582
:1002B0004C1084EA530404D54042C1F1000138BF18
:1002C000491E1B4204D55242C3F1000338BF5B1ED6
:1002D00000F015F814F0804F04D04042C1F1000145
:1002E00038BF491E14F0004F04D05242C3F100033E
:1002F00038BF5B1E10BD704770477047704753EAA8
:10030000020C00F069802DE9F04B4FF00006002B45
:100310001FBFB3FA83F503FA05F424FA05F65E402D
:1003200012BF1643B2FA82F502FA05F4C5F12005B0
:100330001EBF22FA05FC44EA0C04203556EA044CA0
:100340004FEA144418BF641C4FF000084FF0000936
:10035000904271EB030C39D3002919BFB1FA81F730
:1003600001FA07F6B0FA80F700FA07F6C7F120079E
:100370001EBF20FA07FC46EA0C062037B6FBF4FC49
:10038000A7EB0507103F07F01F0BCBF120060CFA77
:100390000BFB2CFA06F644BFB3460026202FA4BF61
:1003A0005E464FF0000B5BEA060C08BF4FF0010BF6
:1003B00019EB0B09ABFB027C48EB0608C01B06FBE4
:1003C00002CC0BFB03CC71EB0C01C1E70B460246E0
:1003D00041464846BDE8F08B13B54FF000004FF0A2
:1003E0000001AFF30080BDE81C407047754600F087
:1003F00029F8AE4605006946534620F007008546B9
:1004000018B020B5FFF740FFBDE820404FF00006D0
:100410004FF000074FF000084FF0000B21F00701EC
:10042000AC46ACE8C009ACE8C009ACE8C009ACE82F
:10043000C0098D4670470446AFF300802046FFF7A1
:100440000EFF0000004870473C02002021B1826886
:1004500042F00102826003E0826822F001028260C1
:10046000704700000021084A1168084A1140D0E98D
:1004700000231A4383681A43C3681A431143044A8A
:10048000C2F804137047000004230140E030FCFF71
:100490000020014030B50246002000235068104C77
:1004A00020400D790C6844EA052420435060906890
:1004B0000C4C2040D1E903542C438D682C434D79DA
:1004C00044EA450420439060D06A20F470000C7D1B
:1004D000641EE4B2234340EA0350D06230BD000002
:1004E000FFFEFFFCFDF7FFC000B58DB00121042029
:1004F00001F04AFB0121080201F076FB20200B905D
:1005000003208DF8300000208DF833000BA915482A
:1005100000F030FF0121080201F076FB00214FF4CA
:10052000807001F071FB002007900A9009904FF451
:100530008030089007A8FFF795FF002001908DF804
:1005400008008DF809000390059001208DF818002F
:1005500001A90548FFF79EFF01210348FFF776FF39
:100560000DB000BD00080240002001401CB5012173
:10057000042001F009FB4FF40040009001208DF8A9
:10058000040000208DF8060003208DF805000120EE
:100590008DF807006946044800F0ECFE4FF4004176
:1005A000014800F05BFF1CBD0008024010B5044686
:1005B00006211A2000F010F90A2004F089F94148B8
:1005C000007801287CD100203E4908702078BB28A3
:1005D00074D1A41C2078617840EA01203A4908804F
:1005E000E07805280CDDA078E17840EA0120374961
:1005F000086008460068A0F57F40FF38086005E005
:10060000A078E17840EA0120304908606079B0289C
:100610000CDD2079617940EA01202D490860084607
:100620000068A0F57F40FF38086005E02079617917
:1006300040EA01202649086023490888C11700EBD9
:1006400011710911204A118020490868C11700EB77
:10065000117109111D4A11601D490868C11700EB8D
:10066000117109111A4A116017480088B42805DD74
:1006700015480088B4381449088004E012480088FE
:10068000B430114908801148006840420F490860A1
:100690000F480068002808DD0D480068C0F1B4006C
:1006A0000B49086008E00BE008E0094800686FF0BB
:1006B000B301081A06490860002010BD0120FCE7BC
:1006C0000120FAE7270000202A0000202C0000204B
:1006D0003000002010B5044600213D2000F026F92E
:1006E0000A2004F0F5F80121002000F075F86420DC
:1006F00004F0EEF80321364800F090F83549087010
:1007000008460078A02812D00121002000F064F8EB
:10071000642004F0DDF803212D4800F07FF82D4916
:10072000087008460078A02801D0012010BD0021E3
:100730003D2000F0FBF8142004F0CAF820213F20EF
:1007400000F0F4F84FF47A7004F0C2F801210020B0
:1007500000F042F8642004F0BBF803211C4800F0CC
:100760005DF81C49087008460078A02812D00121C5
:10077000002000F031F8642004F0AAF803211448A6
:1007800000F04CF81349087008460078A02801D002
:100790000120CBE700213E2000F0C8F80A2004F039
:1007A00097F80021072000F0C1F80A2004F090F823
:1007B00000213F2000F0BAF80A2004F089F8214611
:1007C0003D2000F0B3F8142004F082F8FF20ADE7DC
:1007D000150000202800002070B505460E460024B4
:1007E0000C488570C6700078AA2811D100BF0DE0B2
:1007F0000848015D084804F028F800BF4021064879
:1008000003F058FF0128F9D1601CC4B2042CEFDBBF
:1008100070BD00000C0000200050004002460C4853
:100820000078012811D10020094B18701078BB28DE
:1008300003D15018421E107870471078EE2802D16C
:10084000521C1078F8E70C20F6E70B20F4E70000C4
:10085000270000202F490978002941D12E492F4A2D
:10086000127888542D490978491C2C4A11702C495A
:10087000097889B928490978BB2903D02949097819
:10088000EE2903D10121264A117029E00021224AD4
:100890001170224A117023E02149097801291FD1E2
:1008A0001D490978EE290CD11C490978082908D17D
:1008B0000121184A11700021194A1170174A11704C
:1008C0000EE015494978891C144A1278914207D1E3
:1008D0000121104A11700021114A11700F4A117044
:1008E0000C490978012914D100210F4A11700CE03C
:1008F00009490D4A1278895C0A4A0B4B1B78D1547E
:1009000009490978491C084A1170074909780829DA
:10091000EEDB7047270000201D000020250000208E
:1009200026000020150000202800002070B5054694
:100930000E460C48857006710078AA2811D1002453
:100940000DE00848015D084803F07FFF00BF40212B
:10095000054803F0AFFE0128F9D1601CC4B2052C94
:10096000EFDB70BD100000200050004010B5FFF715
:10097000BBFD10BD10B5044624B1012C0ED0022CD5
:1009800018D111E04FF400710C4800F069FD00220D
:100990004FF48071094800F065FD0CE04FF44071A0
:1009A000064800F05DFD06E04FF40071034800F0DA
:1009B00057FD00E000BF00BF10BD0000000C02406A
:1009C0001CB50121082001F0DFF84FF4E060009031
:1009D00001208DF8040000208DF8060003208DF81A
:1009E000050001208DF807006946054800F0C2FCAB
:1009F00000224FF4E061024800F034FD1CBD00000D
:100A0000000C024000BFFEE710B5FFF7AFFD10BDC0
:100A1000704710B52DED028BB0EE408AF0EE608A83
:100A2000BCEEC80A10EE100A81B20022062003F0C4
:100A300043F9BCEEE80A10EE100A81B20122072049
:100A400003F03AF9BDEC028B10BD000010B50A208E
:100A500003F03EFF4FF4805000F028FCD0B14FF47B
:100A600080513D4800F0F1FC38B1052001F068FBF1
:100A70004FF4805000F014FC0CE04FF480513648E5
:100A800000F0E3FC30B9052001F098FB4FF48050F2
:100A900000F006FC4FF4806000F008FCD0B14FF489
:100AA00080612D4800F0D1FC38B1062001F048FBF0
:100AB0004FF4806000F0F4FB0CE04FF480612648B6
:100AC00000F0C3FC30B9062001F078FB4FF48060E1
:100AD00000F0E6FB4FF4005000F0E8FBD0B14FF41B
:100AE00000511E4800F0B1FC38B1072001F028FB8E
:100AF0004FF4005000F0D4FB0CE04FF400511748C5
:100B000000F0A3FC30B9072001F058FB4FF400506F
:100B100000F0C6FB4FF4004000F0C8FBD0B14FF42A
:100B200000410D4800F091FC38B1042001F008FBB1
:100B30004FF4004000F0B4FB0CE04FF400410648D5
:100B400000F083FC30B9042001F038FB4FF4004082
:100B500000F0A6FB10BD000000100240000802409B
:100B600010B50A2003F0B4FE0421074800F06DFC24
:100B700018B1012001F0E4FA02E0012001F01EFBAF
:100B8000042000F08DFB10BD0010024010B50A20BB
:100B900003F09EFE0821074800F057FC18B103201F
:100BA00001F0CEFA02E0032001F008FB082000F07B
:100BB00077FB10BD0010024010B50A2003F088FE3C
:100BC0001021074800F041FC18B1092001F0B8FAE3
:100BD00002E0092001F0F2FA102000F061FB10BDE4
:100BE0000008024010B50A2003F072FE202000F039
:100BF0005DFBB0B12021364800F027FC30B1082061
:100C000001F09EFA202000F04BFB0AE02021304842
:100C100000F01BFC28B9082001F0D0FA202000F0D9
:100C20003FFB402000F042FBB0B14021294800F0DA
:100C30000CFC30B1022001F083FA402000F030FBC0
:100C40000AE04021234800F000FC28B9022001F00E
:100C5000B5FA402000F024FB802000F027FBB0B163
:100C600080211D4800F0F1FB30B10B2001F068FA43
:100C7000802000F015FB0AE08021174800F0E5FB1A
:100C800028B90B2001F09AFA802000F009FB4FF4FC
:100C9000807000F00BFBD0B14FF480710E4800F073
:100CA000D4FB38B10A2001F04BFA4FF4807000F009
:100CB000F7FA0CE04FF48071074800F0C6FB30B93A
:100CC0000A2001F07BFA4FF4807000F0E9FA10BDC1
:100CD000000C0240000402400010024010B586B033
:100CE00004460121880300F07FFF0C2C7ED2DFE850
:100CF00004F07D064382BFFCFBFAF9F8F7F6012108
:100D0000102000F041FF0420019000208DF8080021
:100D100003208DF8090001208DF80B0001A9FB4884
:100D200000F028FB0221042001F0EAF904200390DE
:100D300000208DF8100010208DF8110001208DF892
:100D4000120003A800F0BEFA08208DF8140000205D
:100D50008DF8150002208DF8160001208DF817007F
:100D600005A800F033FE0421E84800F06EFB10B93E
:100D7000012001F023FA8CE20121022000F004FF9F
:100D80004020019000208DF8080003208DF8090014
:100D900001208DF80B0001A9DD4800F0EBFA0621D7
:100DA000012001F0ADF94020039000208DF81000E3
:100DB00010208DF8110001208DF8120003A800F01A
:100DC00081FA17208DF8140000208DF815000220FC
:100DD0008DF8160001208DF8170005A800F0F6FD2B
:100DE0004021CB4800F031FB20B900E050E2022066
:100DF00001F0E4F94DE20121102000F0C5FE0820C9
:100E0000019000208DF8080003208DF809000120D2
:100E10008DF80B0001A9BD4800F0ACFA03210420B5
:100E200001F06EF90820039000208DF810001020CA
:100E30008DF8110001208DF8120003A800F042FA8D
:100E400009208DF8140000208DF8150002208DF87F
:100E5000160001208DF8170005A800F0B7FD082145
:100E6000AA4800F0F2FA10B9032001F0A7F910E245
:100E70000121102000F088FE4FF400400190002076
:100E80008DF8080003208DF8090001208DF80B0073
:100E900001A99E4800F06EFA0F21042001F030F9FC
:100EA0004FF40040039000208DF8100010208DF8C2
:100EB000110001208DF8120003A800F003FA282089
:100EC0008DF8140000208DF8150002208DF8160012
:100ED00001208DF8170005A800F078FD06E09AE1E2
:100EE00059E11BE1D4E093E052E009E04FF4004106
:100EF000864800F0AAFA10B9042001F05FF9C8E1B1
:100F00000121102000F040FE4FF48050019001209C
:100F10008DF8080000208DF80A0003208DF80900E4
:100F200001208DF80B0001A9784800F023FA4FF456
:100F30008051764800F094FA0C21042001F0E0F88A
:100F40004FF48050039000208DF8100010208DF891
:100F5000110001208DF8120003A800F0B3F9282039
:100F60008DF8140000208DF8150002208DF8160071
:100F700001208DF8170005A800F028FD4FF48051DE
:100F8000624800F062FA10B9052001F017F980E11B
:100F90000121102000F0F8FD4FF480600190002046
:100FA0008DF8080003208DF8090001208DF80B0052
:100FB00001A9564800F0DEF90A21042001F0A0F84A
:100FC0004FF48060039000208DF8100010208DF801
:100FD000110001208DF8120003A800F073F92820F9
:100FE0008DF8140000208DF8150002208DF81600F1
:100FF00001208DF8170005A800F0E8FC4FF480618F
:10100000424800F022FA10B9062001F0D7F840E17A
:101010000121042000F0B8FD4FF4005001900020A1
:101020008DF8080003208DF8090001208DF80B00D1
:1010300001A9384800F09EF90D21022001F060F866
:101040004FF40050039000208DF8100010208DF810
:10105000110001208DF8120003A800F033F92820B8
:101060008DF8140000208DF8150002208DF8160070
:1010700001208DF8170005A800F0A8FC4FF40051DE
:10108000244800F0E2F910B9072001F097F800E1D8
:101090000121082000F078FD2020019000208DF82B
:1010A000080003208DF8090001208DF80B0001A92C
:1010B000194800F05FF90521032001F021F82020F4
:1010C000039000208DF8100010208DF811000120F1
:1010D0008DF8120003A800F0F5F817208DF8140021
:1010E00000208DF8150002208DF8160001208DF8E3
:1010F000170005A800F06AFC2021074800F0A5F9B8
:1011000010B9082001F05AF8C3E0000000100240B6
:101110000004024000080240000C024001210420AB
:1011200000F032FD1020019000208DF8080003200F
:101130008DF8090001208DF80B0001A9564800F038
:1011400019F90421022000F0DBFF10200390002099
:101150008DF8100010208DF8110001208DF812007C
:1011600003A800F0AFF80A208DF8140000208DF8D5
:10117000150002208DF8160001208DF8170005A833
:1011800000F024FC1021444800F05FF910B9092058
:1011900001F014F87DE00121102000F0F5FC4FF47F
:1011A0008070019000208DF8080003208DF8090060
:1011B00001208DF80B0001A9384800F0DBF8082168
:1011C000042000F09DFF4FF48070039000208DF804
:1011D000100010208DF8110001208DF8120003A8D6
:1011E00000F070F817208DF8140000208DF815001D
:1011F00002208DF8160001208DF8170005A800F0D8
:10120000E5FB4FF48071254800F01FF910B90A2062
:1012100000F0D4FF3DE00121102000F0B5FC80205B
:10122000019000208DF8080003208DF809000120AE
:101230008DF80B0001A9194800F09CF80721042043
:1012400000F05EFF8020039000208DF81000102039
:101250008DF8110001208DF8120003A800F032F87B
:1012600017208DF8140000208DF8150002208DF84D
:10127000160001208DF8170005A800F0A7FB8021BB
:10128000064800F0E2F810B90B2000F097FF00E0EC
:1012900000BF00BF06B010BD0008024000100240B1
:1012A0000149086070470000143C014001460020DD
:1012B000034A12680A400AB1012000E0002070478A
:1012C000143C0140002123498279002A3AD00A4681
:1012D000126803689A430B461A600A1D1268036875
:1012E0009A430B1D1A60027911440A6803681A4375
:1012F0000A60184A0832126803689A43154B08338B
:101300001A601A1D126803689A43124B0C331A6054
:101310004279102A0ED11A1F126803681A430D4B26
:1013200008331A601A1D126803681A43094B0C33FC
:101330001A600DE00749427911440A6803681A43AC
:101340000A6005E0027911440A6803689A430A605A
:1013500070470000003C014010B50248FFF726F935
:1013600010BD00001500002010B504462046FFF710
:10137000B5FC10BDF0B50A4600210023002400BFD3
:101380003DE0012505FA01F3156805EA03049C42D6
:1013900034D105684F000326BE40B543056015797A
:1013A0004E00B5400668354305601579012D02D021
:1013B0001579022D16D185684F000326BE40B5432E
:1013C000856055794E00B54086683543856045682F
:1013D00001268E40B5434560456896798E40B6B289
:1013E00035434560C5684F000326BE40B543C56020
:1013F000D5794E00B540C6683543C560491C1029F3
:10140000BFD3F0BDF0B5002300244D07ED0E02FA66
:1014100005F3CE1000F1200555F826504E07F70EC3
:101420000F26BE40B543CF1000F1200646F82750E6
:10143000CE1000F1200555F8265045EA0304CE10E1
:1014400000F1200545F82640F0BD02460020136952
:101450000B400BB1012000E0002070474183704732
:10146000018370470AB1018300E0418370470000A7
:101470001CB50121022000F087FBC0200090012054
:101480008DF8040000208DF8060003208DF805007B
:1014900001208DF8070069460348FFF76BFFC02164
:1014A0000148FFF7DDFF1CBD0004024010B5FFF747
:1014B000DFFF062000F046F8642003F009FA00F090
:1014C0005DF800F05BF8034890ED000A024880EDFB
:1014D000000A10BD480000205400002010B52DED7A
:1014E000048B00F04BF8114890ED000A1048D0ED45
:1014F000000A30EE600ADFED0F0A20EE200A10EE3F
:10150000101A084604F086F841EC190B9FED0A0BFF
:1015100053EC102B03F0FEFC41EC180B03F020FC05
:1015200000EE100ABDEC048B10BD00004800002046
:10153000540000200000C8429A9999999999234033
:1015400000BFFEE710B5044600F0FAF8EC2000F00A
:1015500037F90948007810B900F076F810BD204638
:1015600000F02EF90448007810B900F06DF8F5E7A6
:1015700000F006F900BFF1E73800002010B52DEDAE
:10158000048B4820FFF7DEFF282003F0A1F930206C
:10159000FFF7D8FF00F0D4F8ED2000F011F916485D
:1015A000007820B900F050F8BDEC048B10BD01208C
:1015B00000F07EF804462402012000F079F804438C
:1015C0002402002000F074F8044300F0D9F80B481E
:1015D0000460006803F023FE41EC190B9FED080B3B
:1015E00053EC102B03F096FC41EC180B03F0B8FB06
:1015F0000549086000BFD7E7380000203C00002004
:1016000000000000000059404800002010B50220F2
:1016100003F07AF900200A490860142003F074F9F5
:1016200001200849C1F89C02142003F06DF9002044
:101630000349091D0860142003F066F910BD00007D
:10164000988240420080404210B50020094908605D
:10165000142003F059F901200749C1F89C02142015
:1016600003F052F9012003490860122003F04CF9FD
:1016700010BD0000988240420080404210B5012019
:1016800009490860142003F03FF901200749C1F817
:101690009C02142003F038F900200349091D08605A
:1016A000142003F031F910BD98824042008040427E
:1016B00070B505460A2003F027F91E48006820F49B
:1016C00040501C4908600846006808600A2003F082
:1016D0001BF9002615E06006040E0120164908607B
:1016E000132003F011F91548D0F8180208B144F09E
:1016F0000104002010490860142003F005F9701C53
:10170000C6B2082EE7DB022003F0FEF809480068A5
:1017100020F44050074908600846006840F48050B3
:10172000086015B1FFF772FF01E0FFF7A7FF204641
:1017300070BD0000000402409C8240420080404294
:1017400010B501200C490860142003F0DDF80120D9
:101750000A49C1F89C02142003F0D6F8002006497B
:101760000860142003F0D0F800200449C1F89C025E
:10177000122003F0C9F810BD988240420080404218
:1017800010B500200C490860142003F0BDF80020BB
:101790000A49C1F89802142003F0B6F8012006495E
:1017A0000860142003F0B0F801200449C1F8980241
:1017B000122003F0A9F810BD9C82404200804042F4
:1017C00070B50546022003F09FF83648006820F403
:1017D0004050344908600846006840F48050086072
:1017E00000241EE005F0800030B101202E49086081
:1017F000132003F089F805E000202B49086012202F
:1018000003F082F801202849091D08606806050ECA
:10181000142003F079F800202449C1F89C02601CD0
:10182000C4B2082CDEDB022003F06EF81D4800680D
:1018300020F440501B4908600846006808601320E7
:1018400003F062F800201A49087001201649091DAA
:101850000860002409E014488038006818B90120A5
:101860001349087003E0601CC4B2142CF3DB00BF02
:10187000132003F049F800200B49091D08600220DD
:1018800003F042F80748006820F44050054908601A
:101890000846006840F48050086001200349C1F800
:1018A000980270BD0004024098824042008040428D
:1018B0003800002010B54FF4165002F0DAFF21A0D6
:1018C00002F0DFFF0C214FF4E13000F045FC02F0A4
:1018D000FDF9FFF799F8FFF749F802F0C6FFFF227C
:1018E0001146104602F0B7FFFFF76AF80120FFF734
:1018F0003BFD012015490860642002F0E9FF00204B
:101900001349C1F8BC02642002F0E2FF01200F4934
:101910000860642002F0DCFF00200D49C1F8BC0221
:10192000642002F0D5FF012008490860642002F01D
:10193000CFFF00200649C1F8BC02642002F0C8FFB6
:1019400010BD000041542B4330313200BC024142F3
:10195000000041421749184A1278885416490978FC
:10196000491C154A11701549097869B91149097856
:10197000AA2903D10121114A117019E000210D4A51
:1019800011700D4A117013E00C49097801290FD12B
:10199000094909780A290BD10649497ABB2907D197
:1019A0000121074A11700021034A1170034A117086
:1019B000704700001C0200200900002008000020E1
:1019C0000A00002000BFFEE77047000070B500214C
:1019D00000230F22C4781CB3174C246804F4E0647D
:1019E000C4F5E064C4F30721C1F10404E3B20A4181
:1019F00044789C40E1B28478144021430C07210EC6
:101A00000E4C05786155047804F01F050124AC40A4
:101A100005786D11AD0005F1E025C5F8004109E03C
:101A2000047804F01F050124AC40054D06787611BA
:101A300045F8264070BD00000CED00E000E400E039
:101A400080E100E002490143024A11607047000052
:101A50000000FA050CED00E07047000070B5054687
:101A60000E461446092D72D2DFE805F082051323D5
:101A7000314151617200002C03DD01203E490860B4
:101A800002E000203C49086031463C4802F09DF8E5
:101A90006FE0002C04DD01203749091D086003E0D8
:101AA00000203549091D08603146344802F08FF89E
:101AB0005FE0002C03DD01203149086002E00020D6
:101AC0002F49086031462F4802F085F851E0002C7C
:101AD00004DD01202A49091F086003E0002028498D
:101AE000091F08603146274802F073F841E0002CD6
:101AF00004DD012020490831086003E000201E4970
:101B00000831086031461D4802F063F831E0002CCE
:101B100004DD012018490C31086003E0002016495B
:101B20000C3108603146154802F055F821E0002CD0
:101B300004DD012012490839086003E00020104943
:101B40000839086031460F4802F041F811E00FE013
:101B5000002C04DD01200A490C39086003E0002054
:101B600007490C3908603146064802F02EF800E0BB
:101B700000BF00BF70BD0000800241420004004071
:101B8000BC8240420004014029B1064A1268024367
:101B9000044B1A6004E0034A12688243014B1A6046
:101BA000704700003038024029B1064A12680243EB
:101BB000044B1A6004E0034A12688243014B1A6026
:101BC000704700004038024029B1064A12680243BB
:101BD000044B1A6004E0034A12688243014B1A6006
:101BE000704700002038024029B1064A12680243BB
:101BF000044B1A6004E0034A12688243014B1A60E6
:101C0000704700004438024029B1064A1268024376
:101C1000044B1A6004E0034A12688243014B1A60C5
:101C20007047000024380240F0B500210022002453
:101C3000022500260223324F3F6807F00C0121B134
:101C4000042905D0082937D105E02E4F076036E07A
:101C50002D4F076033E02A4F3F1F3F68C7F3805680
:101C6000274F3F1F3F6807F03F036EB1264FB7FB7A
:101C7000F3F7DFF88CC0ACF1040CDCF800C0CCF357
:101C8000881C07FB0CF40CE01E4FB7FBF3F7DFF8E2
:101C900070C0ACF1040CDCF800C0CCF3881C07FB6E
:101CA0000CF4174F3F1F3F68C7F301477F1C7D00AF
:101CB000B4FBF5F7076002E0124F076000BF00BFFA
:101CC0000F4F3F6807F0F0010909104F7A5C076871
:101CD000D74047600A4F3F6807F4E051890A0B4F2D
:101CE0007A5C4768D7408760054F3F6807F46041DA
:101CF000490B064F7A5C4768D740C760F0BD0000CB
:101D0000083802400024F40000127A000C0200207F
:101D10001CB501210846FFF737FF4FF40060009023
:101D200001208DF8040000208DF8060003208DF8B6
:101D3000050001208DF8070069460448FFF71AFBEB
:101D40004FF400610148FFF789FB1CBD0000024011
:101D500010B54FF400615948FFF782FB00BF00BF88
:101D600000BF00BF00BF00BF00BF00BF00BF00BF7B
:101D700000BF00BF00BF00BF00BF00BF00BF00BF6B
:101D800000BF00BF00BF00BF00BF00BF00BF00BF5B
:101D900000BF00BF00BF00BF4FF400614748FFF71E
:101DA0005DFB00BF00BF00BF00BF00BF00BF00BFA2
:101DB00000BF00BF00BF00BF00BF00BF00BF00BF2B
:101DC00000BF00BF00BF00BF00BF00BF00BF00BF1B
:101DD00000BF00BF00BF00BF00BF00BF00BF00BF0B
:101DE00000BF00BF00BF00BF00BF00BF00BF00BFFB
:101DF00000BF00BF00BF00BF00BF00BF00BF00BFEB
:101E000000BF00BF00BF00BF00BF00BF00BF00BFDA
:101E100000BF00BF00BF00BF00BF00BF00BF00BFCA
:101E200000BF00BF00BF00BF00BF00BF00BF00BFBA
:101E300000BF00BF00BF00BF00BF00BF00BF00BFAA
:101E400000BF00BF00BF00BF00BF00BF00BF00BF9A
:101E500000BF00BF00BF00BF00BF00BF00BF00BF8A
:101E600000BF00BF00BF00BF00BF00BF00BF00BF7A
:101E700000BF00BF00BF00BF00BF00BF00BF00BF6A
:101E800000BF00BF00BF00BF00BF00BF00BF00BF5A
:101E900000BF00BF00BF00BF00BF00BF00BF00BF4A
:101EA00000BF00BF00BF00BF00BF00BF00BF00BF3A
:101EB00000BF00BF00BF00BF00BF10BD0000024058
:101EC00010B54FF400615948FFF7CAFA00BF00BFD0
:101ED00000BF00BF00BF00BF00BF00BF00BF00BF0A
:101EE00000BF00BF00BF00BF00BF00BF00BF00BFFA
:101EF00000BF00BF00BF00BF00BF00BF00BF00BFEA
:101F000000BF00BF00BF00BF00BF00BF00BF00BFD9
:101F100000BF00BF00BF00BF00BF00BF00BF00BFC9
:101F200000BF00BF00BF00BF00BF00BF00BF00BFB9
:101F300000BF00BF00BF00BF00BF00BF00BF00BFA9
:101F400000BF00BF00BF00BF00BF00BF00BF00BF99
:101F500000BF00BF00BF00BF00BF00BF00BF00BF89
:101F600000BF00BF00BF00BF00BF00BF00BF00BF79
:101F700000BF00BF00BF00BF00BF00BF00BF00BF69
:101F800000BF00BF00BF00BF00BF00BF00BF00BF59
:101F900000BF00BF00BF00BF00BF00BF00BF00BF49
:101FA00000BF00BF00BF00BF00BF00BF00BF00BF39
:101FB00000BF00BF00BF00BF00BF00BF00BF00BF29
:101FC00000BF00BF00BF00BF00BF00BF00BF00BF19
:101FD00000BF00BF00BF00BF00BF00BF00BF00BF09
:101FE00000BF00BF4FF400611048FFF737FA00BF91
:101FF00000BF00BF00BF00BF00BF00BF00BF00BFE9
:1020000000BF00BF00BF00BF00BF00BF00BF00BFD8
:1020100000BF00BF00BF00BF00BF00BF00BF00BFC8
:1020200000BF00BF00BF00BF00BF10BD00000240E6
:1020300070B506460C461546304600F007F82046B7
:1020400000F004F8284600F001F870BD70B50446B1
:1020500000250BE004F0800010B1FFF731FF01E034
:10206000FFF776FE6006040E681CC5B2082DF1DB92
:1020700070BD10B50446204602F0B8FD10BD00004A
:102080001CB501210846FFF77FFD4FF480700090DA
:1020900001208DF8040000208DF8060003208DF843
:1020A000050001208DF8070069460448FFF762F932
:1020B0004FF480710148FFF7D3F91CBD00000240C6
:1020C00010B5044600200B4908604FF4FA7002F086
:1020D000FFFB204602F050FA4FF4FA7002F0F8FBD2
:1020E00001200549C1F8A0024FF47A7002F0F0FB1C
:1020F00010BD0000A00240420000404270470000B6
:1021000030B500228B071C0F0F2303FA04F20B4B90
:102110008C1053F824309343084C8D1044F825302C
:1021200023468C1053F824308C07240F00FA04F453
:102130002343024C8D1044F8253030BD083801404F
:10214000411E012202FA01F1024A12881143014A9A
:10215000118070473400002070B506460C460325F8
:10216000304602F0BFFC4FF47A7002F0B1FB0EE093
:102170002046FEF7AFFA05462946064802F065FB01
:1021800000BF4021034802F095FA0128F9D1FF2D44
:10219000EED170BD0010014010B52DED028BFFF7A0
:1021A0009DF9B0EE408AB0EE480ABDEC028B10BD3E
:1021B00010B5FFF75DF9FFF779F910BD411E012257
:1021C00002FA01F1024A12888A4301490A807047E3
:1021D0003400002070B52DED068B04460D462846D0
:1021E00003F01DF841EC1A0B9FED720B53EC102B12
:1021F00003F028F841EC190B9FED700B53EC102BFA
:1022000002F0E0FD41EC180B02F0DCFF86B20C2C72
:1022100072D2DFE804F0CA061A2E435A7289CACA7B
:102220009EB56848007858B96649097809B901210E
:1022300000E00021084600F053FA012061490870CF
:102240003146614801F0C1FCB0E06048007858B9FF
:102250005E49097809B9012100E00021084600F033
:1022600083FE0120594908703146594801F0AFFCFE
:102270009CE05848007860B95649097809B90121AD
:1022800000E000210846002101F04EFA01205149EA
:1022900008703146504801F098FC87E04F480078BC
:1022A00070B94E49097809B9012100E000210846BA
:1022B00000231A46194600F069FA012047490870C0
:1022C0003146474801F087FC70E04648007870B915
:1022D0004448007808B9012000E0002001460023AE
:1022E0001A46184600F052FA01203E49087031465D
:1022F0003B4801F06EFC59E057E03B48007870B96C
:102300003948007808B9012000E000200246002387
:102310001946184600F03AFA012033490870314650
:102320002F4801F054FC41E03048007860B92F4854
:10233000007808B9012000E000200146002001F0EB
:10234000F3F90120294908703146234801F03FFC88
:102350002CE02748007870B92548007808B901209A
:1023600000E00020034600221146104600F00EFA5D
:1023700001201F4908703146194801F026FC15E07C
:102380001C48007858B91B49097809B9012100E0B7
:102390000021084600F0C8FA0120164908703146AD
:1023A0004FF0804001F011FC00E000BF00BFBDEC29
:1023B000068B70BDA3737E8AE338364000000000B0
:1023C00000408F40D801002000480140D901002082
:1023D00000080040DA01002000400140DB0100203D
:1023E00000000140DC010020DD010020DE010020B2
:1023F000DF010020E001002070B504460D462946AB
:102400002046FFF7E7FE70BD0CB50020019000905C
:102410004148006840F480303F49086000BF3E48B2
:10242000006800F4003000900198401C0190009872
:1024300018B90198B0F5A04FF1D13748006800F401
:10244000003010B10120009001E0002000900098C1
:10245000012860D130484030006840F080502E495B
:10246000403108602D48006840F440402B49086026
:102470002948083000682849083108600846006883
:1024800040F4004008600846006840F4A05008602E
:102490002348091F0860081F006840F08070091F6A
:1024A000086000BF1C48006800F000700028F9D0E8
:1024B0001A48006840F480301849086000BF174887
:1024C000406800F480300028F9D01448006840F4D7
:1024D00000301249086000BF1048406800F4003026
:1024E0000028F9D040F205700E4908600A4808300B
:1024F000006820F0030008490831086008460068B9
:1025000040F00200086000BF03480830006800F097
:102510000C000828F8D10CBD0038024000700040C3
:10252000085A4008003C0240042808D14FF0E0213E
:10253000096941F004014FF0E022116107E04FF01A
:10254000E021096921F004014FF0E0221161704798
:102550007047000010B51548006840F4700013493A
:1025600008601348006840F001001149086000202D
:102570000F49083108600E4800680E4908400C49B0
:1025800008600D48091D0860081F006820F48020BD
:10259000091F0860002006490C310860FFF734FF6E
:1025A0004FF0006001498039086010BD88ED00E0FF
:1025B00000380240FFFFF6FE10300024F0B50C4654
:1025C000154600210022068C4FF6FE773E40068419
:1025D000018B028C4FF60C7631407E1C06EA031606
:1025E0002E4331434FF6F576324044F00106324334
:1025F00001830284F0BDF0B50C461546002100228F
:102600000026078C4FF6EF7C07EA0C070784018B46
:10261000028C4FF6FF7707EA041640F6FF47394071
:102620004FF6FF7707EA033739434FF6FF7707EA9C
:10263000052739434FF65F773A4046F010073A4393
:1026400001830284F0BDF0B50C461546002100223E
:102650000026078C4FF6FF6C07EA0C070784818B76
:10266000028C4FF6FF7707EA04264FF60C773940C5
:102670004FF6FF7707EA03172F4339434FF2FF570F
:102680003A4046F480773A4381830284F0BDF0B546
:102690000C461546002100220026078C4EF6FF7CD2
:1026A00007EA0C070784818B028C4FF6FF7707EA55
:1026B000043640F6FF4739404FF6FF7707EA052713
:1026C00039434FF6FF7707EA0337394345F6FF777B
:1026D0003A4046F480573A4381830284F0BD0000BB
:1026E00010B58AB00446002C49D001218804FFF7B8
:1026F0007BFA01210220FFF747FA03220921214832
:10270000FEF780FE4FF40070089002208DF8240040
:1027100003208DF8250000208DF8260001208DF87B
:10272000270008A91748FEF725FE5920ADF8140028
:102730000020ADF8160049F63F4006900020ADF8A5
:102740001C0005A9104801F075FA6020ADF80000E2
:102750000120ADF8020000200290ADF80C0069469F
:10276000094801F0E7F80821074801F021F90121A3
:10277000054801F057F80121034801F062F80AB05A
:1027800010BD00000004024000480140F0B58BB0CD
:1027900007460C4615461E46381928443044002882
:1027A0007ED000215E4801F04CF801210846FFF779
:1027B0001BFA01211020FFF7E7F9BEB10122092120
:1027C0005848FEF71FFE4FF40070099002208DF864
:1027D000280003208DF8290000208DF82A00012010
:1027E0008DF82B0009A94F48FEF7C4FDBFB10122A7
:1027F0000E214C48FEF706FE4FF48040099002205F
:102800008DF8280003208DF8290000208DF82A007B
:1028100001208DF82B0009A94248FEF7ABFDBCB1A1
:1028200001220D213F48FEF7EDFD4FF400500990C5
:1028300002208DF8280003208DF8290000208DF853
:102840002A0001208DF82B0009A93648FEF792FDD9
:10285000BDB101220B213348FEF7D4FD4FF40060D7
:10286000099002208DF8280003208DF8290000200F
:102870008DF82A0001208DF82B0009A92948FEF7C0
:1028800079FD5920ADF818000020ADF81A0049F67E
:102890003F4007900020ADF8200006A9204800E046
:1028A0003BE001F0C7F97020ADF804000120ADF85D
:1028B000060000200390ADF810003EB101A91848B1
:1028C00001F038F80821164801F072F83DB101A96D
:1028D000134801F077F80821114801F0C5F83CB120
:1028E00001A90F4801F0CEF808210D4801F01AF9AE
:1028F0003FB101A90A4801F01FF90821084801F079
:1029000057F90121064800F0A8FF0121044800F012
:1029100089FF0121024800F094FF0BB0F0BD0000D8
:10292000000001400010024010B58AB00446002C9F
:102930004AD001210846FFF737F901210846FFF781
:1029400023F9012205212148FEF75CFD2020089093
:1029500002208DF8240003208DF8250000208DF83A
:10296000260001208DF8270008A91848FEF702FD6F
:102970002C20ADF814000020ADF8160049F63F40B9
:1029800006900020ADF81C0005A94FF0804001F032
:1029900051F96020ADF800000120ADF802000020E0
:1029A0000290ADF80C0069464FF0804000F0C2FF85
:1029B0000821C80600F0FCFF0121880700F032FF63
:1029C0000121880700F03DFF0AB010BD0000024061
:1029D00030B58BB004460D4601210220FFF7E4F824
:1029E00001210846FFF7D0F801210220FFF7CCF8BB
:1029F000022206213B48FEF705FD02220721394845
:102A0000FEF700FD022200213748FEF7FBFC022200
:102A100001213548FEF7F6FCC020099002208DF810
:102A2000280003208DF8290000208DF82A000120BD
:102A30008DF82B0009A92B48FEF79CFC0320099078
:102A400002208DF8280003208DF8290000208DF841
:102A50002A0001208DF82B0009A92348FEF78AFCE3
:102A6000A8B2ADF818000020ADF81A000794ADF830
:102A7000200006A91D4801F0DDF86020ADF8040033
:102A80000120ADF8060000200390ADF8100001A968
:102A9000164800F04FFF01A9144800F093FF01A968
:102AA000124800F0EFFF01A9104801F045F8082195
:102AB0000E4800F07DFF08210C4800F0D5FF0821EA
:102AC0000A4801F02FF80821084801F071F80121A7
:102AD000064800F0A7FE0121044800F0B2FE0BB04A
:102AE00030BD00000000024000040240000400402D
:102AF00030B587B004460D4601210420FFF754F895
:102B000001210820FFF740F84FF4704005900220A3
:102B10008DF8180003208DF8190000208DF81A0098
:102B200001208DF81B0005A93748FEF723FC02227F
:102B30000C213548FEF766FC02220D213248FEF7D3
:102B400061FC02220E213048FEF75CFC02220F21BC
:102B50002D48FEF757FCADF808500020ADF80A00EC
:102B60000394ADF8100002A9284801F063F8002092
:102B7000274908804880012088800020C88008817B
:102B8000224800F096FE0420214908800020488059
:102B9000012088800020C88008811C4800F089FE40
:102BA00008201B49088000204880012088800020E0
:102BB000C8800881154800F07CFE0C20144908806C
:102BC00000204880012088800020C88008810F48AC
:102BD00000F06FFE01221F210C4800F0A1FE012130
:102BE0000A4800F02EFE1E208DF8040002208DF809
:102BF000050000208DF8060001208DF8070001A8CF
:102C0000FEF7E4FE07B030BD000C024000080040B3
:102C10003002002010B50121BA4800F039FE20B181
:102C20000121B84800F00AFE6AE10221B54800F02F
:102C30002FFE012853D10221B24800F0FFFDB24817
:102C4000006840B9AF4800F017FEB04908600120A5
:102C5000AD49086054E1AC4800680128E4D1A948B6
:102C600000F00AFEAA49086008460068A7490968FA
:102C700088420CDDA6480068A4490968401AC117BB
:102C8000A44B0CCB80185941A24A03C20EE09F48C6
:102C900000684FF6FF71081A9D4909680844C1177A
:102CA0009C4B0CCB801859419A4A03C29A48006841
:102CB000401C994908603C280DD10A2200239549FF
:102CC00003C9FDF7F4FA954A03C20020914A106047
:102CD00050609149086000208B49086010E1042190
:102CE000884800F0D5FD012855D10421854800F021
:102CF000A5FD8B48006840B9824800F0C0FD8949B5
:102D00000860012086490860FAE0854800680128CB
:102D10008AD17C4800F0B3FD83490860084600680A
:102D20008049096888420DDD7F4800687D4909684F
:102D3000401AC1177D4AD2E90032C01851417B4A7E
:102D400003C20EE0774800684FF6FF71081A764913
:102D500009680844C117754B0CCB80185941734A58
:102D600003C273480068401C714908603C280ED1BA
:102D70000A2200236D4903C9FDF799FA6D4A03C27F
:102D800000216A4A116051600020694908600020F2
:102D900063490860B4E008215A4800F079FD012831
:102DA00054D10821574800F049FD6348006840B9F4
:102DB000544800F067FD6149086001205E490860E1
:102DC0009EE05D480068012888D14E4800F05AFD19
:102DD0005B490860084600685849096888420CDD6C
:102DE0005748006855490968401AC117554B0CCB24
:102DF00080185941534A03C20EE0504800684FF60C
:102E0000FF71081A4E4909680844C1174D4B0CCB95
:102E1000801859414B4A03C24B480068401C4A493C
:102E200008603C280ED10A220023464903C9FDF759
:102E30003EFA464A03C20021424A11605160002016
:102E40004149086000203C49086059E010212D48A4
:102E500000F01EFD012853D110212A4800F0EEFC9D
:102E60003B48006840B9274800F00FFD3949086029
:102E700001203749086043E03548006801283FD108
:102E8000204800F002FD34490860084600683149D6
:102E9000096888420CDD304800682E490968401AEC
:102EA000C1172E4B0CCB801859412C4A03C20FE09E
:102EB000284800684FF6FF71081A27490968084436
:102EC000C117264AD2E90032C0185141234A03C231
:102ED00023480068401C224908603C280DD10A2282
:102EE00000231E4903C9FDF7E2F91E4A03C2002070
:102EF0001A4A106050601A4908600020144908609E
:102F000010BD000000080040300100202801002012
:102F10002C01002038010020400100204801002041
:102F200058010020500100205401002060010020C1
:102F3000680100207001002080010020780100203D
:102F40007C010020880100209001002098010020D1
:102F5000A8010020A0010020A4010020B001002051
:102F6000B8010020C001002010B58AB00446002C32
:102F70004CD00021264800F064FC01210420FEF71B
:102F800013FE01210220FEF7FFFD02220721214846
:102F9000FEF738FA8020089002208DF824000320E4
:102FA0008DF8250000208DF8260001208DF82700DF
:102FB00008A91848FEF7DEF92C20ADF8140000200F
:102FC000ADF8160049F63F4006900020ADF81C0011
:102FD00005A90F4800F02EFE6020ADF8000001208A
:102FE000ADF8020000200290ADF80C0069460848D8
:102FF00000F0E8FC0821064800F036FD01210448F5
:1030000000F010FC0121024800F01BFC0AB010BDCA
:10301000000800400004024030B587B004460D4669
:1030200001210820FEF7C0FD01210846FEF7ACFD96
:103030000F20059002208DF8180003208DF819004C
:1030400000208DF81A0001208DF81B0005A93848D2
:10305000FEF790F9022200213548FEF7D3F902224B
:1030600001213348FEF7CEF9022211463048FEF71F
:10307000C9F9022203212E48FEF7C4F9ADF8085021
:103080000020ADF80A000394ADF8100002A9294809
:1030900000F0D0FD00202849088048800120888069
:1030A0000020C8800881234800F003FC0420224946
:1030B000088000204880012088800020C880088186
:1030C0001C4800F0F6FB08201B49088000204880BF
:1030D000012088800020C8800881164800F0E9FBA4
:1030E0000C2015490880002048800120888000209D
:1030F000C88008810F4800F0DCFB01221F210D4829
:1031000000F00EFC01210B4800F09BFB32208DF8F3
:10311000040002208DF8050000208DF80600012033
:103120008DF8070001A8FEF751FC07B030BD000084
:1031300000000240000C00402602002010B50121D2
:10314000B94800F0A5FB20B10121B74800F076FB9B
:1031500068E10221B44800F09BFB012853D1022111
:10316000B14800F06BFBB148006840B9AE4800F0D0
:1031700083FBAF4908600120AC49086052E1AB48CD
:1031800000680128E4D1A84800F076FBA94908604E
:1031900008460068A649096888420CDDA548006811
:1031A000A3490968401AC117A34B0CCB8018594199
:1031B000A14A03C20FE09E4800684FF6FF71081A4B
:1031C0009C4909680844C1179B4AD2E90032C018DB
:1031D0005141994A03C299480068401C97490860C8
:1031E00006280CD19448D0E90010954AC2E9001095
:1031F0000021914A11605160002090490860002030
:103200008A4908600EE10421874800F041FB01284B
:1032100054D10421844800F011FB8A48006840B969
:10322000814800F02CFB884908600120854908602E
:10323000F8E08448006801288AD17B4800F01FFB31
:1032400082490860084600687F49096888420CDDA9
:103250007E4800687C490968401AC1177C4B0CCB3A
:10326000801859417A4A03C20FE0774800684FF648
:10327000FF71081A754909680844C117744AD2E9F0
:103280000032C0185141724A03C272480068401CA3
:10329000704908603C280DD10A2200236C4903C9FB
:1032A000FDF705F86C4A03C20020694A10605060BF
:1032B00068490860002063490860B3E008215A4863
:1032C00000F0E6FA012854D10821574800F0B6FA78
:1032D0006248006840B9544800F0D4FA6049086078
:1032E00001205E4908609DE05C480068012889D1A2
:1032F0004D4800F0C7FA5B49086008460068584925
:10330000096888420CDD5748006855490968401A29
:10331000C117554B0CCB80185941534A03C20EE0DC
:103320004F4800684FF6FF71081A4E490968084473
:10333000C1174D4B0CCB801859414B4A03C24B4827
:103340000068401C494908603C280ED10A2200232D
:10335000454903C9FCF7ABFF454A03C20021424A75
:103360001160516000204149086000203B4908601D
:1033700058E010212C4800F08BFA012852D110217E
:10338000294800F05BFA3B48006840B9264800F045
:103390007CFA3949086001203649086042E0354826
:1033A000006801283ED1204800F06FFA33490860D8
:1033B000084600683049096888420CDD2F480068DB
:1033C0002D490968401AC1172D4B0CCB8018594163
:1033D0002B4A03C20EE0284800684FF6FF71081A16
:1033E000264909680844C117254B0CCB8018594160
:1033F000234A03C223480068401C224908603C2835
:103400000DD10A2200231E4903C9FCF750FF1E4AB2
:1034100003C200201A4A106050601A490860002058
:103420001449086010BD0000000C0040940000200A
:103430008C0000209000002098000020A0000020B8
:10344000A8000020B8000020B0000020B400002038
:10345000C0000020C8000020D0000020E0000020B4
:10346000D8000020DC000020E8000020F000002050
:10347000F8000020080100200001002004010020C5
:1034800010010020180100202001002010B50121AA
:103490003D4800F0FDF9002875D001213A4800F0C0
:1034A000CDF93A480CC83A480021FCF700FF3C210E
:1034B000A0FB01013749088037480CC83448002177
:1034C000FCF7F5FE3C21A0FB01013449088034489B
:1034D0000CC82F480021FCF7EAFE3C21A0FB0101AB
:1034E0003049088030480CC829480021FCF7DFFE2D
:1034F0003C21A0FB01012D4908802D480CC824481F
:103500000021FCF7D4FE3C21A0FB010129490880E1
:1035100029480CC81E480021FCF7C9FE3C21A0FB2D
:1035200001012649088026480CC819480021FCF7EB
:10353000BEFE3C21A0FB01012249088022480CC8A4
:1035400013480021FCF7B3FE3C21A0FB01011F49F9
:10355000088000210D4A1160516000200E4A106061
:103560005060134A11605160134A11605160164A4D
:1035700011605160124A116051600B4A1160516034
:10358000074A1060506010BD00140040A8000020E1
:1035900040420F00C8010020D0000020CA010020D6
:1035A000C0010020CC01002098010020CE010020A5
:1035B000F8000020D001002020010020D2010020CE
:1035C00070010020D401002048010020D601002015
:1035D0007FB505460C4601212020FEF7E5FA02954D
:1035E000ADF804400020ADF80C00ADF8060001A9CC
:1035F0000D4800F01FFB012211460B4800F090F926
:1036000037208DF8000000208DF8010003208DF890
:10361000020001208DF803006846FEF7D7F901216A
:10362000014800F00EF97FBD0014004030B58BB0AA
:1036300004460D4601210220FEF7D6FA012104209E
:10364000FEF7A2FA032206213548FDF7DBFE03222E
:1036500007213348FDF7D6FE032208213048FDF745
:10366000D1FE032209212E48FDF7CCFE4FF47070E5
:10367000099002208DF8280003208DF829000020F1
:103680008DF82A0001208DF82B0009A92448FDF7A8
:1036900071FEA8B2ADF818000020ADF81A0007942A
:1036A000ADF8200006A91F4800F0C4FA6020ADF86C
:1036B00004000120ADF8060000200390ADF81400CE
:1036C000ADF8100001A9174800F034F901A9154818
:1036D00000F078F901A9134800F0D4F901A91148C4
:1036E00000F02AFA08210F4800F062F908210D487D
:1036F00000F0BAF908210B4800F014FA0821094833
:1037000000F056FA0121074800F0A7F8012105480A
:1037100000F088F80121034800F093F80BB030BDA9
:10372000000802400004014030B58BB005460C464D
:10373000281900286FD00021384800F082F80121B4
:103740000804FEF751FA01211020FEF71DFAB5B169
:10375000032205213248FDF755FE20200990022062
:103760008DF8280003208DF8290000208DF82A000C
:1037700001208DF82B0009A92948FDF7FBFDB4B104
:10378000032206212648FDF73DFE40200990022035
:103790008DF8280003208DF8290000208DF82A00DC
:1037A00001208DF82B0009A91D48FDF7E3FD5920E4
:1037B000ADF818000020ADF81A0049F63F40079018
:1037C0000020ADF8200006A9144800F033FA60206C
:1037D000ADF804000120ADF8060000200390ADF81C
:1037E00010003DB101A90D4800F0A4F808210B48D4
:1037F00000F0DEF83CB101A9084800F0E3F8082128
:10380000064800F031F90121044800F00BF80121CD
:10381000024800F016F80BB030BD00000040014037
:103820000010024021B1028842F08002028004E0D0
:1038300002884FF67F731A4002807047CA430282A3
:10384000704721B1028842F00102028004E0028840
:103850004FF6FE731A400280704731B1B0F8442031
:1038600042F40042A0F8442005E0B0F84420C2F33E
:103870000E02A0F8442070470146486B704701468D
:10388000886B70470146C86B70470146086C7047EB
:1038900030B50246002000230024158A05EA010302
:1038A000958905EA010413B10CB1012000E0002064
:1038B00030BD70B505460C46208850B92389A288D2
:1038C00061882846FEF77AFEE188284600F085F9EF
:1038D00025E0208804280AD12389A2886188284607
:1038E000FEF789FEE188284600F080F917E020887D
:1038F00008280AD12389A28861882846FEF7A3FEFA
:10390000E188284600F07FF909E02389A2886188D0
:103910002846FEF7BCFEE188284600F07DF970BD20
:103920001AB183890B43838102E083898B438381AE
:103930007047000070B5002400220023058C4FF66C
:10394000FE7635400584028C8388048B4FF68F7594
:103950002C40B51E2C400D882C43751E2A408D89A5
:103960002A434D882A43104DA84202D00F4DA84249
:1039700013D14FF6F7752A40CD892A434FF6FB75D0
:103980002A408D882A434FF6FF652B404FF6FF559E
:103990002B400D8A2B434D8A2B43838004838D68F3
:1039A0004563028470BD0000000001400004014036
:1039B0000A460021018B4FF6F7731940114301832A
:1039C0007047000070B5002400220023058C4FF6DC
:1039D000EF7635400584028C8388048B48F6FF75AA
:1039E0002C404FF6FF452C400D884FF6FF7606EA37
:1039F00005252C434FF6DF752A408D8906EA05150B
:103A00002A434D8806EA05152A43154DA84202D0DF
:103A1000144DA8421DD14FF67F752A40CD894FF62F
:103A2000FF7606EA05152A434FF6BF752A408D88B2
:103A300006EA05152A434FF6FF352B404FF2FF7576
:103A40002B400D8A06EA85052B434D8A06EA85053B
:103A50002B43838004838D688563028470BD0000DE
:103A600000000140000401400A460021018B4FF292
:103A7000FF7319404FF6FF7303EA022319430183D2
:103A80007047000070B5002400220023058C4FF61B
:103A9000FF6635400584028C8388848B4FF68F75D2
:103AA0002C404FF6FC752C400D882C434FF6FF55EB
:103AB0002A408D894FF6FF7606EA05252A434D8870
:103AC00006EA05252A43154DA84202D0144DA84206
:103AD0001DD14FF2FF752A40CD894FF6FF7606EAD9
:103AE00005252A434FF6FF352A408D8806EA05252D
:103AF0002A434EF6FF752B404DF6FF752B400D8A7D
:103B000006EA05152B434D8A06EA05152B438380EB
:103B100084838D68C563028470BD0000000001408D
:103B2000000401400A460021818B4FF6F7731940CB
:103B3000114381837047000070B5002200230024E8
:103B4000058C4EF6FF7635400584038C8488828B85
:103B500048F6FF752A404FF6FF452A400D884FF67C
:103B6000FF7606EA05252A434DF6FF752B408D8921
:103B700006EA05352B434D8806EA05352B430A4DE9
:103B8000A84202D0094DA84208D14BF6FF752C403F
:103B90000D8A4FF6FF7606EA85152C4384808283D2
:103BA0008D680564038470BD00000140000401407D
:103BB0000A460021818B4FF2FF7319404FF6FF73C5
:103BC00003EA02231943818370474163704781638D
:103BD0007047C163704701647047028B4FF6F373FF
:103BE0001A400283028B0A4302837047028B4FF212
:103BF000FF331A400283028B4FF6FF7303EA01235F
:103C00001A4302837047828B4FF6F3731A40828304
:103C1000828B0A4382837047828B4FF2FF331A40B4
:103C20008283828B4FF6FF7303EA01231A43828358
:103C30007047000000220288184B98420ED0184BA3
:103C400098420BD0B0F1804F08D0164B984205D067
:103C5000154B984202D0154B984204D14FF68F7302
:103C60001A404B881A43124B984207D0114B984286
:103C700004D04FF6FF431A400B891A4302804B6869
:103C8000C3620B880385054B984202D0044B9842CF
:103C900001D18B7A038601238382704700000140A3
:103CA000000401400004004000080040000C0040F7
:103CB000001000400014004070B504460D46164642
:103CC000324629462046FDF7C9FE70BD10B500F00A
:103CD00019F82C216320FEF77BFE2C216320FFF7CF
:103CE000A5FC59214FF6FF70FEF702FF59214FF056
:103CF000FF30FFF791F942F2273141F28730FFF7A9
:103D000067FC10BD1CB501210220FDF73DFF01211C
:103D10000420FDF739FF4FF47040009001208DF82A
:103D2000040000208DF8060003208DF80500012016
:103D30008DF8070069460F48FDF71CFB4FF47041F2
:103D40000C48FDF78DFB0F20009001208DF804003A
:103D500000208DF8060003208DF8050001208DF865
:103D6000070069460448FDF705FB0F210248FDF7EF
:103D700077FB1CBD000402400008024010B540F271
:103D80002551074800F0A3FC40B1054800F058FD5C
:103D9000C4B240F22551024800F0F9FB10BD00000A
:103DA000004C004010B540F22551084800F08FFC4F
:103DB00058B1064800F044FDC4B22046FCF74AFD65
:103DC00040F22551014800F0E2FB10BD00500040D8
:103DD00010B540F22551084800F079FC58B106486A
:103DE00000F02EFDC4B2204600F008F840F2255144
:103DF000014800F0CCFB10BD007C004010B504462B
:103E00002046532C6CD00CDCA0F141000E287DD252
:103E1000DFE800F0207C7CB67CFCFBFA7CF9F8F74C
:103E2000F6F5742873D00CDC702871D004DC5628A9
:103E30006FD065286AD104E371286BD07228F9D15C
:103E400009E3772867D0782866D079287ED07A2849
:103E5000F0D1D8E2FE480068401EFD4908600846DF
:103E6000006800280FDC00221146104600F0F3FC29
:103E70000020FCF77FFD00210120FEF7BDFAB421F0
:103E80000320FEF7B9FA002211460120FFF714FFC4
:103E9000F04890ED000ABCEEC00A10EE100A81B2A4
:103EA00001220220FFF708FF012200210320FFF773
:103EB00003FFE84890ED000ABCEEC00A10EE100ABD
:103EC00081B201220420FFF7F7FE002211460620EE
:103ED000FFF7F2FE012200210720FFF7EDFE13E3BA
:103EE000DB480068401EDA49086008460068002880
:103EF00017DC00221146104600F0ADFC0020FCF754
:103F000039FD00210120FEF777FA06E0FBE2ACE282
:103F1000B5E2CEE238E28AE27FE2B4210320FEF786
:103F20006BFA002211460120FFF7C6FECA4890ED49
:103F3000000ABCEEC00A10EE100A81B20122022073
:103F4000FFF7BAFE00221146032000E03DE2FFF732
:103F5000B3FEC14890ED000ABCEEC00A10EE100A94
:103F600081B201220420FFF7A7FE0022114606209D
:103F7000FFF7A2FE012200210720FFF79DFEC3E20A
:103F8000B3480068401EB24908600846006800282F
:103F90000FDC00221146104600F05DFC0020FCF70B
:103FA000E9FC00210120FEF727FAB4210320FEF7E7
:103FB00023FA002211460120FFF77EFEA74890ED6C
:103FC000000ABCEEC00A10EE100A81B201220220E3
:103FD000FFF772FE002211460320FFF76DFE9F4897
:103FE00090ED000ABCEEC00A10EE100A81B2012268
:103FF0000420FFF761FE00221146062007E07EE262
:1040000079E27BE134E1E0E099E04EE007E0FFF7A0
:1040100053FE012200210720FFF74EFE74E28C4878
:104020000068401E8A49086008460068002807DCCE
:1040300000221146104600F00EFC0020FCF79AFC0E
:10404000002211460120FFF737FE854890ED000A57
:10405000BCEEC00A10EE100A81B201220220FFF766
:104060002BFE002211460320FFF726FE7C4890ED30
:10407000000ABCEEC00A10EE100A81B20122042030
:10408000FFF71AFE002211460620FFF715FE012257
:1040900000210720FFF710FE00210120FEF7ACF9F8
:1040A0005A210320FEF7A8F92EE269480068401E55
:1040B0006749086008460068002807DC00221146AE
:1040C000104600F0C8FB0020FCF754FC002211460B
:1040D0000120FFF7F1FD634890ED000AF0EE000AC1
:1040E00030EE200ABCEEC00A10EE100A81B20122A6
:1040F0000220FFF7E1FD5B4890ED000ABCEEC00A2C
:1041000010EE100A81B200220320FFF7D5FD002235
:1041100011460420FFF7D0FD002211460620FFF7CC
:10412000CBFD012200210720FFF7C6FD0021012061
:10413000FEF762F900210320FEF75EF9E4E144484E
:104140000068401E4249086008460068002807DCF5
:1041500000221146104600F07EFB0020FCF70AFC0E
:104160003F4890ED000ABCEEC00A10EE100A81B282
:1041700001221046FFF7A0FD012200210220FFF7D7
:104180009BFD374890ED000ABCEEC00A10EE100A05
:1041900081B200220320FFF78FFD012200210420BD
:1041A000FFF78AFD002211460620FFF785FD012258
:1041B00000210720FFF780FD00210120FEF71CF9F8
:1041C0005A210320FEF718F99EE121480068401E9D
:1041D0001F4908600846006800280FDC00221146CD
:1041E000104600F038FB0020FCF7C4FB0021012042
:1041F000FEF702F9B4210320FEF7FEF8174890ED10
:10420000000ABCEEC00A10EE100A81B2012210466C
:10421000FFF752FD012200210220FFF74DFD0F485C
:1042200090ED000ABCEEC00A10EE100A81B2002226
:104230000320FFF741FD012200210420FFF73CFD90
:10424000002211460620FFF737FD012200210BE076
:10425000E4010020F4010020F8010020FC0100200E
:1042600000020020040200200720FFF725FD4BE19B
:10427000A6480068401EA549086008460068002856
:104280000FDC00221146104600F0E5FA0020FCF792
:1042900071FB00210120FEF7AFF8B4210320FEF7E7
:1042A000ABF89B4890ED000ABCEEC00A10EE100A75
:1042B00081B201221046FFF7FFFC012200210220FB
:1042C000FFF7FAFC924890ED000ABCEEC00A10EE2F
:1042D000100A81B200220320FFF7EEFC0122002128
:1042E0000420FFF7E9FC002211460620FFF7E4FC5A
:1042F000012200210720FFF7DFFC05E18348006869
:10430000401E824908600846006800280FDC002231
:104310001146104600F09FFA0020FCF72BFB00210D
:104320000120FEF769F8B4210320FEF765F879480B
:1043300090ED000ABCEEC00A10EE100A81B2012214
:104340001046FFF7B9FC012200210220FFF7B4FC60
:10435000704890ED000ABCEEC00A10EE100A81B25F
:1043600000220320FFF7A8FC012200210420FFF710
:10437000A3FC002211460620FFF79EFC012200212B
:104380000720FFF799FCBFE060480068002816DCB2
:104390000022FF21104600F05EFA0F205B49086002
:1043A0000120FCF7E7FA0120FCF7E4FA5A2101208A
:1043B000FEF722F85A210320FEF71EF804E05348C6
:1043C0000068401E514908609EE05048006800287F
:1043D00013DC0022FF21104600F03DFA0F204B496C
:1043E00008600120FCF7C6FA5A210120FEF704F804
:1043F0005A210320FEF700F804E044480068401EFC
:104400004249086080E0444890ED000AF7EE000A57
:1044100030EE200A80ED000A76E03F4890ED000A79
:10442000F7EE000A30EE600A80ED000A6CE03948D1
:1044300090ED000AF7EE000A30EE600A80ED000A07
:1044400062E0334890ED000AF7EE000A30EE600AB1
:1044500080ED000A58E0314890ED000AF7EE000ABE
:1044600030EE600A80ED000A4EE02D4890ED000A23
:10447000F7EE000A30EE600A80ED000A44E09FED9E
:10448000290A244880ED000A9FED270A204880ED84
:10449000000AB3EE0E0A214880ED000A9FED210AC2
:1044A0001F4880ED000A9FED1F0A1B4880ED000A9F
:1044B0002AE0002211460120FFF7FEFB0122002125
:1044C0000220FFF7F9FB012200210320FFF7F4FB94
:1044D000012200210420FFF7EFFB002211460620F5
:1044E000FFF7EAFB012200210720FFF7E5FB002090
:1044F000FCF740FA00BF0020FCF73CFA00BF0120A7
:10450000FCF738FA00BF00BF00BF10BDE401002077
:10451000F8010020F401002004020020FC0100202A
:1045200000020020000048420000204210B540F286
:104530002551084800F0CBF858B1064800F080F942
:10454000C4B22046FDF706FA40F22551014800F0BA
:104550001EF810BD0010014010B504462146054864
:1045600000F073F900BF4021024800F0A3F80128D1
:10457000F9D110BD0010014010B5044603E02078C9
:10458000FFF7EAFF641C20780028F8D110BD10B5B1
:104590000022002340F66A14A14200D100BF0A1293
:1045A00001249440A3B2DC43048010BD21B1828970
:1045B00042F40052828104E082894DF6FF731A4072
:1045C0008281704710B504463248844208D10121E7
:1045D0001020FDF719FB00211020FDF715FB57E017
:1045E0002D48844209D101214804FDF7EDFA00214C
:1045F0004FF40030FDF7E8FA4AE02848844209D138
:1046000001218804FDF7E0FA00214FF48020FDF736
:10461000DBFA3DE02248844209D10121C804FDF7BC
:10462000D3FA00214FF40020FDF7CEFA30E01D4808
:10463000844209D101210805FDF7C6FA00214FF493
:104640008010FDF7C1FA23E01748844208D1012108
:104650002020FDF7D9FA00212020FDF7D5FA17E038
:104660001248844209D101218807FDF7ADFA0021E3
:104670004FF08040FDF7A8FA0AE00D48844207D1C8
:1046800001214005FDF7A0FA00216005FDF79CFA25
:1046900010BD0000001001400044004000480040F0
:1046A000004C0040005000400014014000780040E1
:1046B000007C004002460020B1F5007F00D100BF21
:1046C00013880B400BB1012000E00020704770B54B
:1046D0000246002400230025002040F66A16B1425D
:1046E00000D100BFC1F3421501F01F03012606FAF5
:1046F00003F3012D02D19689334006E0022D02D149
:10470000168A334001E0968A33400C12012606FADD
:1047100004F41688344013B10CB1012000E00020ED
:1047200070BDF0B50346002400260025002040F6A9
:104730006A17B94200D100BF1846C1F3421401F014
:104740001F06012707FA06F5012C01D10C3004E001
:10475000022C01D1103000E014301AB107682F4349
:10476000076002E00768AF430760F0BD2DE9FF472F
:1047700005460E460024A14600BFA046B08900B100
:1047800000BF2C8A24F44054F08804432C82AC8966
:1047900041F20C608443B088318908437189084331
:1047A0000443AC81AC8A24F44074B0890443AC82E5
:1047B0006846FDF739FA2048854202D01F488542F5
:1047C00002D1DDF80C9001E0DDF80890A88900F432
:1047D000004040B109EBC90000EB09103168490005
:1047E000B0FBF1F707E009EBC90000EB09103168F5
:1047F0008900B0FBF1F76420B7FBF0F00401200959
:10480000642101FB1078A88900F4004040B13220F7
:1048100000EBC800B0FBF1F000F00700044308E033
:10482000322000EB08106421B0FBF1F000F00F0023
:1048300004432C81BDE8FF870010014000140140B3
:1048400001468888C0F308007047C1F308028280DF
:10485000704700BFFEE770B504460D461646324667
:1048600029462046FDF7E4FB70BD10B5FDF750FA70
:1048700010BD10B50446FDF703FC204600F012FA07
:1048800010BD10B504462046FDF71AFC10BD00BF50
:104890007047000010B504466FF00400FDF744FEB9
:1048A000E11704EB5171C1F3C701074A11701046BB
:1048B000007800EB4001C1EBC0104FF6FF7101EA38
:1048C000C0000249088010BD080200200A02002032
:1048D00070B504464FF4077094FBF0F0C6B24FF485
:1048E000077094FBF0F100FB114085B205E04FF436
:1048F000077000F02FF8701EC6B2002EF7D115B168
:10490000284600F027F870BD0146114A12784A4344
:104910004FF0E0235A6100229A611A46126942F070
:1049200001021A6100BF4FF0E022106900F001029D
:104930001AB100F48032002AF5D04FF0E02212695B
:1049400022F001024FF0E0231A6100229A617047C1
:10495000080200200146114A12884A434FF0E02322
:104960005A6100229A611A46126942F001021A61E4
:1049700000BF4FF0E022106900F001021AB100F40C
:104980008032002AF5D04FF0E022126922F00102B5
:104990004FF0E0231A6100229A6170470A0200205A
:1049A00000BF00BF002600243225B420FFF772FFAD
:1049B0004FF4A060FDF746F84FF41650FDF759FB91
:1049C000FCF778FFFDF7F4FB00210120FDF714FD53
:1049D000B4210320FDF710FD04E06D1EFCF7BCFCC4
:1049E00036480688002DF8DC66E0FCF7B5FC334855
:1049F0000088841B502C09DC14F1140F06DBDFED5A
:104A0000300A9FED2F0AFCF704F855E0AA2C08DCC9
:104A1000502C06DDDFED2B0A9FED2A0AFBF7F9FF8C
:104A20004AE0B4F5B47F47DCAA2C45DDFDF7B4FBC2
:104A3000DFED250AB4EEE00AF1EE10FA06D2DFED62
:104A4000230A9FED220AFBF7E4FF35E0FDF7A4FB04
:104A5000DFED1F0AB4EEE00AF1EE10FA06D2DFED48
:104A6000190A9FED180AFBF7D4FF25E0FDF794FB28
:104A7000DFED180AB4EEE00AF1EE10FA06D2DFED2F
:104A8000160A9FED150AFBF7C4FF15E0FDF784FB3E
:104A9000DFED120AB4EEE00AF1EE10FA06D2DFED15
:104AA000100A9FED0F0AFBF7B4FF05E0DFED040AE3
:104AB0009FED030AFBF7ADFF97E700002A000020F7
:104AC0000000000000008C420000C8420000B44218
:104AD000000016430000AF43000070420000E143B5
:104AE0000000484210B588B0044601210C20FDF7B3
:104AF0004BF801210805FDF757F802208DF81C003E
:104B000001208DF81E0002208DF81D0000208DF878
:104B10001F004FF48050069006A93148FCF72AFC8C
:104B200002208DF81C0001208DF81F000420069043
:104B300006A92C48FCF71EFC08220C212848FCF78B
:104B400061FC082202212748FCF75CFC2648FFF79D
:104B500039FD02940C20ADF812000020ADF80C00D5
:104B6000ADF81000ADF80E00ADF8140002A91E4813
:104B7000FFF7FCFD35208DF8040003208DF80500BB
:104B800002208DF8060001208DF8070001A8FCF72F
:104B90001DFF012240F225511348FFF7C2FD0121FC
:104BA0001148FFF703FD012240F225510E48FFF79F
:104BB000B8FD35208DF8040003208DF805008DF830
:104BC000060001208DF8070001A8FCF7FFFE00BFDA
:104BD00040210548FFF76EFD0128F9D108B010BD4E
:104BE00000080240000C02400050004010B588B0A0
:104BF000044601211020FCF7C7FF0121C807FCF77C
:104C0000D3FF082200212548FCF7FCFB08220121E4
:104C10002248FCF7F7FB0320069002208DF81C00C9
:104C20008DF81D0000208DF81E0001208DF81F005A
:104C300006A91A48FCF79EFB02940020ADF80C0070
:104C4000ADF80E00ADF81000ADF814000C20ADF872
:104C5000120002A91248FFF789FD01211048FFF751
:104C6000A5FC012240F225510D48FFF75AFD5320C3
:104C70008DF8040003208DF805008DF80600012052
:104C80008DF8070001A8FCF7A1FE00BF40210448F1
:104C9000FFF710FD0128F9D108B010BD0010024047
:104CA000007C004010B588B0044601210846FCF79E
:104CB0006BFF01211020FCF797FF072209212648EE
:104CC000FCF7A0FB07220A212348FCF79BFB4FF4CB
:104CD000C060069002208DF81C008DF81D00002099
:104CE0008DF81E0001208DF81F0006A91A48FCF758
:104CF00041FB02940020ADF80C00ADF80E00ADF8B9
:104D00001000ADF814000C20ADF8120002A91348F1
:104D1000FFF72CFD01211148FFF748FC012240F26A
:104D200025510E48FFF7FDFC25208DF804000320D7
:104D30008DF805008DF8060001208DF8070001A808
:104D4000FCF744FE00BF40210448FFF7B3FC0128F4
:104D5000F9D108B010BD0000000002400010014071
:104D600021F00042A2F16052B2F5801F01F0004331
:104D700028BFD2F17F6C0BD95FEA001C43EAC20264
:104D800042EB507018BF704728BF20F001007047F9
:104D9000B2F5801FBCBF184670474FEA410C1CF5A6
:104DA000001F02D2084600F0ABBC70B500F0F4FA68
:104DB00000000089FFF7F6BF4FF00040A0F580002B
:104DC0007047000010B591EA030F48BF83F000431D
:104DD00000F13E83841A71EB030C05D2121943EBE8
:104DE0000C03001B61EB0C01DFF824E14FEA1154C6
:104DF000A4EB135C1EEA430F18BF9EEA445F73D016
:104E000023EA0E03DCF1200E21EA045143F480135F
:104E100032D322FA0CFE10EB0E0023FA0CFE41EB0B
:104E20000E01CCF1200E03FA0EFE10EB0E0051F134
:104E30000001B1F5801FCCF1200E32D201EB0451FC
:104E400012FA0EF2BDE8104058BF7047401C38BF40
:104E50005FEA420218BF7047002814BF20F001002B
:104E600041F100014FEA410313F5001F38BF7047BD
:104E7000A1F1C04100F0DEBA012A43EB0302ACF11C
:104E8000200CDCF11F0E32BF4FF0000E23FA0CF3A2
:104E900010EB030041EB0451B4EB115FD0D0A1EB58
:104EA000045101F5801149085FEA300001EB04511B
:104EB0000ED350F1000038BF12FA0EFE08D1BDE843
:104EC0001040C9E7401C38BF5FEA4202CAD1C3E7BD
:104ED000BDE810404FEA410313F5001F38BF70478B
:104EE000A1F1C04100F0A6BA9EEA445F08D011EAE1
:104EF0005E0FBDE8104004BF01F000410020704784
:104F0000BDE8104070B500F047FA00BF64FBBE3E3C
:104F10000000E0FF2DE9C04130B4DFF8A0C23CEA58
:104F2000111418BF3CEA131400F0EC8081EA030569
:104F30001CEA111444EAD57418BF1CEA131500F0DA
:104F4000C780A4EB05044FF0004545EAC12145EABE
:104F5000C32341EA505143EA525304F17F7499420A
:104F600004F500344FEAC0204FEAC22208BF904245
:104F700000F09C804FEA13650FF24016765D4FEA11
:104F8000134506FB05F7C7F1807706FB07F74FEAE5
:104F9000D737A7FB03687642C8F58038A7FB06CE53
:104FA00038BFA8F1010807FB08E64FF0000EA6FB8A
:104FB000028CE6FB03CEDCF1000CCEF1004E38BFD4
:104FC000AEF1010EA6FB0C584FF000074FF00005A4
:104FD000E6FB0E87A1FB08C6A0FB07CE16EB0E066C
:104FE00045F10005E1FB076515F1E04E7EBFA4F534
:104FF00080345FEA46066D4116F1800745F10005F1
:105000004FEA17274FEA066647EA0567A6F1DE462C
:10501000B6F1805F4FEA15251FD9384624F0010C00
:1050200005EBC471BCF1FE6F01EB0C1102D8F0BCB2
:10503000BDE8008124425CBF01F5801E9EEAC47F6A
:1050400002D4F0BCBDE80081244238D4F0BCA1F108
:10505000C041BDE8004100F0EDB94FEAD22242EA7A
:1050600043524FEAD323A7FB02864FEAD02040EAFF
:10507000415007FB03661EEA0E0F4FEAD12105FBE4
:10508000026658BFA6EB0056B6EB00564FEA520E2A
:105090004EEAC37E18EB0E0E56EB530EBDD518EB41
:1050A00002085E417F1C55F10005B6E74FF48015FC
:1050B0004FF000074FF000064FF00008ADE7F0BCDE
:1050C0004FF0000001F1C04101F00041BDE8008156
:1050D00011EA0C1F0CEA131500D00CE013EA0C1FA8
:1050E00000F025804FF00000F0BC81EA030101F0E0
:1050F0000041BDE80081F0BCBDE8004181EA030148
:1051000000F098B9F0BCBDE8004170B500F044F97A
:10511000097EFC3E00F007B881EA03014FF0000071
:1051200001F00041704781EA030100F083B9F0BC4F
:10513000BDE800414FF0000021497047FFFDFBF939
:10514000F7F5F4F2F0EEEDEBE9E8E6E4E3E1E0DEBA
:10515000DDDBDAD8D7D5D4D3D1D0CFCDCCCBCAC82C
:10516000C7C6C5C4C2C1C0BFBEBDBCBBBAB9B8B753
:10517000B6B5B4B3B2B1B0AFAEADACABAAA9A8A846
:10518000A7A6A5A4A3A3A2A1A09F9F9E9D9C9C9B14
:105190009A999998979796959594939392919190BF
:1051A0008F8F8E8E8D8C8C8B8B8A89898888878750
:1051B0008685858484838382828181800000FF07C5
:1051C0000000F87F4FEA1153A3F58063D3F11E036B
:1051D000A8BFD3F1200C08DB4FF0004242EAC12205
:1051E00052EA505232FA03F0704709420BD4102BA6
:1051F000C4BF0020704703F5787CBCF1FF3F05D0A9
:105200004FF0FF3070474FF00000704770B500F06E
:10521000C3F800BF4992248000207047F0E7B0FA3D
:1052200080F310FA03F10AD0C3F11D0303F5806384
:105230004FEA41504FEA035202EBD12170474FF041
:1052400000007047DFF848C170B51CEA111E1EBF90
:105250001CEA13159EEA0C0F95EA0C0F00F06F8004
:1052600081EA030423EA4C134EEAD47E21EA4C116E
:1052700041F4801143F48013AE44A1FB024CA0FB27
:105280000365AEF17F7E361955EB0C05A1FB034C8F
:105290004CF10003A0FB021C16EB0C06654153F118
:1052A0000003094218BF46F0010613F4007F0BD13A
:1052B0004FEA03314FEA0530340341EA155140EA21
:1052C00016506FF003020AE04FEAC3214FEAC520EF
:1052D000F40241EA555140EA56506FF0020202EBE7
:1052E0002E4201EB025585EACE710AD05FEA440CEA
:1052F00018BF24F0004450F1000041F1000120EA01
:10530000D47040F2FE7C624500D270BDA84214BF4A
:105310004FF080444FF04044002E08BF0024BEF1FF
:10532000806FA8BFA1F1C041BDE8704080F28280CB
:105330004FF0000001F1C04101F0004170479EEACA
:105340000C0F0CEA131518BF95EA0C0F06D04FF09E
:10535000000081EA030E0EF0004170BD00F01CF861
:105360008900013E00F007B800F009B84FEA430C8D
:105370005FEA5C5C08D081EA030100F05BB84FEAA9
:10538000410C5FEA5C5CF6D14FF0000001497047C8
:105390000000FF070000F87F0EF1020E2EF0030E52
:1053A0005EF8046B364205D4012A43EB030515F57C
:1053B000001F12D8012841EB010C1CF5001F0CD86E
:1053C0000ED14FEAD17C15F5001F0CEB4C0C0CF103
:1053D000020C08BF4CEBD37C04E04FF0080C01E05A
:1053E0004FEAD37C0CEB4C0526FA05F606F00706CF
:1053F000B6F1040C06D20EEB860CBDE870404CF002
:10540000010C6047DFE80CF0090B02024FF000418D
:105410004FF00000A1F5002170BD1946104601288B
:1054200051EB010418BFD4F5001484BF002001F033
:10543000004170BD0808A0F500114FEA3101704726
:1054400010B591EA030F48BF83F000433FF5C2ACAB
:10545000841A71EB030C07D212198CF0004C43EB49
:105460000C03001B61EB0C01DFF8A4E14FEA1154BF
:10547000A4EB135C1EEA430F18BF9EEA445F00F0E2
:10548000B08023EA6E03524221EA0451C3EB6E035B
:1054900038BF5B1EDCF1200E25D322FA0CFE10EB88
:1054A0000E0043FA0CFE41EB0E01CCF1200E03FA84
:1054B0000EFE10EB0E0051F10001CCF1200E29D4AC
:1054C00012FA0EF201EB0451BDE8104058BF7047CC
:1054D000401C1CBFB2F1004F704700280CBF491C94
:1054E00020F00100704712EB020E43EB030218BFDD
:1054F0004FF0010E4EEA4202ACF1200CDCF11E0E20
:1055000054D943FA0CFE10EB0E0051F1FF31CCF1EF
:105510001E0ED5D50EF1010E12FA0EFE404141EBE2
:10552000010101EB445C5FEA5C5C10D910EBDE70BA
:1055300001EB045138BFBEF1004FBDE8104018BF69
:10554000704700280CBF491C20F00100704730D282
:105550004FEAD42C11F5001124F400641BD0B1FAE9
:1055600081F20B3AA41AA41ED2F12003914030FA22
:1055700003F31943904001EBCC71002C01EB045173
:10558000BDE81040A8BF704701F1C0414FF00000D6
:1055900001F000417047B0FA80F310FA03F100D136
:1055A00010BDE41A173C4805C90AE4E701EB0451B1
:1055B00010BD491001EB0451BDE810404FEA300026
:1055C00002E04FF0000170474A0008BF0042F8D0E7
:1055D000B2F5001F28BF704701F000414FF00000F6
:1055E00070479EEA445F07D011EA5E0FBDE81040A5
:1055F00004BF002100207047BDE8104070B5FFF7E0
:10560000CBFE00BF40DFF63E83F0004110467047FE
:105610000000E0FF43004FEAD30C4FEA3C0C43404C
:105620001FBF40070CF1605113F0FE4F70471CF094
:10563000006F03D100200CF0004170470CF00043D4
:1056400043EA507010B540EACC0000F00EF800BFFD
:10565000000000924FEA0001FFF7ECBE4FF000415E
:105660004FF00000A1F5002170470EF1020E2EF060
:10567000030E5EF8044B244204D44FEA4102B2F117
:105680007F4F11D84FEA4003B3F17F4F0CD80ED1B2
:105690004FEAD07CB2F17F4F0CEB4C0C0CF1020CBA
:1056A00008BF4CEBD17C04E04FF0080C01E04FEA5E
:1056B000D17C0CEB4C0324FA03F404F00704B4F19E
:1056C000040C06D20EEB840CBDE810404CF0010C2B
:1056D0006047DFE80CF0070802024FF00040A0F539
:1056E000800010BD0846420018BFD2F1807288BF0A
:1056F00000F0004010BD4FF04070E1EE100A70471E
:10570000FF2141EAD050C005704700002C57000827
:10571000000000201C020000E8010008705700088B
:105720001C0200208406000024020008D136AA01D1
:105730000001AA022101032BFF0F6B3F065B4F669E
:105740006D7D077F6F0AFF40066D0040065E713772
:10575000018133484233204233F04133A041934822
:10576000421D0102030401020304060708090000A8
:04000005080001AD41
:00000001FF
